:2000E200D28422858208C2847B007C007D007E00850853755400755500755600907530E4E8
:20010200F5F0C006C005C004C003120F17A882A983AAF0FFD003D004D005D006C3EB98EC3B
:1901220099ED9AEE9F500F0BBB00090CBC00050DBD00BD0E80BAD28422D5
:18013B00758200020141E582FF7005C2A0D2A122BF0104D2A0C2A122E4
:20015300C297D29622AF82BF0120C2967BA07C867D017E001BBBFF091CBCFF051DBDFF0193
:120173001EEB4C4D4E70EDD29722EF7004C297D296225C
:0C018500AF82758400D2C2EF2FF5C322B8
:0E019100C29522E582FF6003C29522D295221C
:20019F00D2A2D2A4D2A322AF82AE8475840F8554C88553D88FE8C2A2C2A385B082D2A2D2C6
:2001BF00A38E8422AF82AE8475840F75A7FF8554C88553D88FE8C2A2C2A48555B0D2A2D261
:0A01DF00A475A70075B0FF8E8422FE
:2001E90075FFDE75FFAD75840075EF0622758400758854758922758E10758CE6758AE67540
:200209008DEC75840075C80475C90875CB0F75CD0F227584007598502275840075C04075BF
:20022900CFFA2275840075D1062275840F75A40175A59775A6FF759CFF759DFF759E0775C6
:20024900E10575E21475E3407580FF2275840F758A812275A8B675B82675E60275F60222DA
:200269001201E91201F612021B12022212022C12023312025512025C02028843EF1022AF0C
:200289008475840075E8C08F8422AF82BF0103D2EF22EF7002C2EF22AF82AE847584008F90
:2002A900BBC2EDD2EC30EDFD740F55BFFF8F047B00A9BE7A00E92BFFEA3CFD8E848F828D88
:0202C90083228E
:2002CB001202E51203B212032D12045412032DC290C291C292D293C2942275533A75820096
:2002EB001206187C107D277E007F001CBCFF091DBDFF051EBEFF011FEC4D4E4F70ED7553E2
:20030B003BF5821206187C107D277E007F001CBCFF091DBDFF051EBEFF011FEC4D4E4F70C4
:20032B00ED2275820B12068AAF8275530075820BC007120618D0077B107C277D007E001BF2
:20034B00BBFF091CBCFF051DBDFF011EEB4C4D4E70ED75532675820EC0071206187553A674
:20036B0075820E120618D0077BA07C867D017E001BBBFF091CBCFF051DBDFF011EEB4C4D17
:20038B004E70ED75820EC00712068AE582D00730E3D675532675820EC007120618D0078FC2
:2003AB005375820B0206187553E17582001206187553587582011206187553C07582021212
:2003CB00061875534C7582031206187553587582041206187553C77582051206187553DC0C
:2003EB007582061206187553007582071206187553807582081206187553817582091206F7
:20040B001875530075820A12061875530075820B12061875536075820C120618755310751E
:20042B00820D12061875532675820E120618755313758211120618755301758213120618B9
:20044B0075530075821C0206187553117582001206187553587582011206187553C07582CF
:20046B000212061875534C7582031206187553587582041206187553C77582051206187586
:20048B0053DC7582061206187553007582071206187553807582081206187553447582097C
:2004AB0012061875530275820A12061875530075820B12061875536075820C1206187553E9
:2004CB001075820D12061875532675820E12061875539675820F12061875530F7582101226
:2004EB000618755313758211120618755300758212120618755301758213120618755300F4
:20050B0075821C020618AC82AD83AEF0FF850B53758201C007C006C005C004120618AB0ACC
:20052B008B53758202120618A8098853758203120618D004D005D0068E53758204C006C012
:20054B0005C004120618D004D0058D038B53758205C005C004120618D004D005D006D00775
:20056B008C53758206120618850E53758207120618AE0D8E53758208120618E50FC454F089
:20058B002403F553758211020618AF82BF013575531175820012061875534475820912066F
:2005AB001875530275820A12061875530075820B120618AE8475840FADA574EF5DF5A58EAF
:2005CB0084D29422BF02317553E175820012061875538175820912061875530075820A12EE
:2005EB00061875530075820B120618AE8475840F43A5108E84C29422EF701175533FF5822E
:20060B0012061875530075820B02061822AF82AE8475840F43A5048E84EF2FFF430701D2F0
:20062B0091C2917E008E047D007407C39CFCE49DFD8CF005F0EF8002C313D5F0FBFC1392D1
:20064B00009292D290C290D2900EBE080040D6D2917F008F057E007407C39DFDE49EFE8D92
:20066B00F005F0E5538002C313D5F0FBFD1392009292D290C290D2900FBF080040D522AFA2
:20068B0082C292AE8475840F43A5048E84EF2FFF5307FED291C2917D008D037C007407C34F
:2006AB009BFBE49CFC8BF005F0EF8002C313D5F0FBFB1392019292D290C290D2900DBD08F9
:2006CB000040D6D291AE8475840FADA574FB5DF5A58E84D2927F007E00D290C290A292E465
:2006EB0033FD7407C39EF5F005F0ED800225E0D5F0FBFD2FFFD2900EBE080040DC8F822225
:20070B00E582FF701275533F758241120618755310758243020618BF011275533075824143
:20072B0012061875531775824302061822E582FFFE24F0400302079CBF1000500302079AFE
:20074B00EF24E7500302079AEF24F0FF240A83F582EF240D83F583E473767A7E82868A8E74
:20076B0092960707070707070707077E4080227E50801E7E60801A7E7080167E8080127E31
:20078B0090800E7EC0800A7EE080067EFF80027E0F8E5375820B020618AF82BF0109755333
:1407AB001F758210020618EF700975530F758210020618226C
:2007BF007E007F00EE253CFBEF353DFCAD3E8B828C838DF0E4120EFC0EBE00010FC3EE94D1
:2007DF001AEF940040DE75240A7825E64401F67825E64402F675260175274C7528C07529A0
:2007FF0058752ADC752BC7752C58752D80752E00782FE64440F6221202697582131201859A
:20081F001200E212019F12013B1201531202CB758201120595120191D286D28722AF8278BC
:20083F002FE64401F6BF0102800FBF0203020977BF030302098502098AE51024F950030261
:20085F00099FE51075F003A490086B73020975020880020886020898020951020965020947
:20087F006D12028402099F782FE654FDF61209A6782FE64402F602099FAB2C7C008C188B20
:20089F0017751600751500AA2B7C007D008D068C058A04E42515F515EC3516F516ED3517EA
:2008BF00F517EE3518F518AB2AE4FCFDFEEB2515F511EC3516F512ED3517F513EE3518F53B
:2008DF0014AA297C008C188A17751600751500AB287C007D008D068C058B04E42515F51595
:2008FF00EC3516F516ED3517F517EE3518F518AA27E4FCFDFEEA2515F509EC3516F50AED19
:20091F003517F50BEE3518F50CAE2E7D00AB2D7C00EB2DF50DEC3EF50E750F01851182851A
:20093F0012838513F0E514120511758201120595804E782FE64410F67582051200E5782F77
:20095F00E654EFF6803A782FE64440F68032782FE654BFF6802A8028851024E4F543F544F0
:20097F00F545F546801A8510258015EF253CFFE4353DFEAD3E8F828E838DF0E510120EFCBC
:20099F00782FE654FEF622782FE64401F6782FE654FDF67825E630E03075820112029375CE
:2009BF0082081202A1AE82AF838E048C308F058D317582011202A1AE82AF838E048C328FE9
:2009DF00058D337582001202937825E630E11E7582011202937582001202A1AE82AF838EA8
:1A09FF00048C348F068E35758200120293782FE64402F6782FE654FEF62264
:09009A00E4F519F51AF51BF51C3B
:200A1900782FE630E70122A293E433FFAE1BB5060122A293E433F51B7401B51B63A294E4E6
:200A390033F51CE51AC51925E0C51933F51A7401551CFF7E004219EE421A7490B5194174C8
:200A5900EBB51A3C782FE64401F6782FE64408F6782FE6C4235401782F13E692E5F6C287D1
:200A7900120A9AD287782FE654F7F6782FE6C4235401FF782F13E692E5F6782FE654FEF6D6
:200A9900227582011207A4854C53AE4B8E547555EB7582001201C3054BE4B54B02054C124C
:200AB9000BD5854C53AE4B8E547555907582001201C3054BE4B54B02054C120BD57E007FA1
:200AD900007C00E4FDF51DF51EC3E51D9476E51E94004003020BA9790078007B002093FD00
:200AF9003093FDA294E433FAE929F974015A420108B800010BC3E89408EB940040DF854C37
:200B190053AA4B8A548955758200C007C006C005C004C0011201C3D001D004D005D006D0F4
:200B390007054BE4B54B02054CC007C006C005C004C001120BD5D001D004D005D006D0071E
:200B5900B97916BC070DBD000A7582001207A4758201227C007D00800EB9C5070CBC0007F4
:200B79000D80047C007D00B95517BE070DBF000A7582001207A4758201220EBE00070F80E2
:200B9900047E007F00051DE4B51D02051E020AE27582001207A475820022C2AC854E53AE41
:200BB9004D8E547582001201A685829910990280FB054DE4B54D02054ED2AC22AF360FEF67
:130BD900F536700EAF370FEFF5377006E538FF04F538226B
:200BEC00855253AE518E547582011201A6AF827E008E047D007407C39CFCE49DFD8CF0059A
:200C0C00F0EF8002C313D5F0FB5401FD2093FDED13920292943093FD0EBE080040D3055118
:200C2C00E4B551020552020CA17582001201947582011201417582021205958526821207E1
:200C4C0038758201120158C294C286782FE64404F6782FE603035401782F13E692E7F6226B
:200C6C00758200120158758200120738758201120595758201120141758201120194D286D7
:200C8C00782FE654FBF6782FE603035401782F13E692E7F622AF390FEFF539700EAF3A0FD3
:0C0CAC00EFF53A7006E53BFF04F53B2233
:040000000200413287
:03000B00020D5291
:03001300020D914A
:01001B0032B2
:03002300020E9E2C
:03002B00020DD0F3
:01003300329A
:03003B00020E1B97
:2000A3007F228F3C753D00753E40753F00754000754100754200E4F543F544F545F546E4A8
:1F00C300F547F548F549F54AE4F54BF54CE4F54DF54EE4F54FF550E4F551F55202003E3C
:03003E00020CB8F9
:200CB8001207BF1208161209A6E5406013E542600F854110853F8212083C75420075400047
:200CD800E524FF60217E007D007C00C3E5439FE5449EE5459DE5469C400CE4F543F544F587
:200CF80045F5461209A6E54BB54D07E54CB54E028003120BB3E54FB55107E550B5520280DA
:200D180024782FE623235401FFBF010E782FE620E703120C35120BEC808F0551E4B551025E
:200D38000552020CC1782FE6235401FFBF01028003020CC1120C6C020CC1C021C0E0C0F0D3
:200D5800C082C083C007C006C005C004C003C002C001C000C0D075D000120A19D0D0D00060
:200D7800D001D002D003D004D005D006D007D083D082D0F0D0E0D02132C021C0E0C0F0C066
:200D980082C083C007C006C005C004C003C002C001C000C0D075D000120284D0D0D000D0AD
:200DB80001D002D003D004D005D006D007D083D082D0F0D0E0D02132C0E0C0D00547E4B5D2
:200DD800470C0548B548070549B54902054AC3E547940AE5489400E5499400E54A940040A7
:200DF8001BE4F547F548F549F54A0543E4B5430C0544B544070545B545020546C2CFD0D0AB
:200E1800D0E032C0E0C0F0C082C083C007C006C005C0D075D000AFC1BF00028054BF6002B6
:200E38008014BF8002801EBF88028045BFA002800DBFA83D8023754000754200803575420C
:200E580000D2C2802EE540700875400185C23F802275420185C241801AE53F253CFDE43548
:200E78003DFEAF3E8D828E838FF0120F85F5C28002D2C4C2C3D0D0D005D006D007D083D054
:200E980082D0F0D0E032C021C0E0C0F0C082C083C007C006C005C004C003C002C001C00044
:200EB800C0D075D00030981A855053AE4F8E548599557582011201C3054FE4B54F02055088
:200ED800C2981099028000D0D0D000D001D002D003D004D005D006D007D083D082D0F0D004
:040EF800E0D02132F3
:06007000E478FFF6D8FD64
:20004E007900E94400601B7A00900FA5780075A200E493F2A308B8000205A2D9F4DAF275A1
:02006E00A2FFEF
:1B0EFC0020F71130F6138883A88220F509F6A8837583002280FEF280F5F022F5
:200F1700AAF0FBE5828553F0A4FCADF0E5838553F0A42DFDE435F0FEE5828554F0A42DFDB6
:200F3700E5F03EFEE433FFEA8553F0A42EFEE5F03FFFE5838554F0A42EFEE5F03FFFE58263
:200F57008555F0A42EFEE5F03FFFEB8553F0A42FFFEA8554F0A42FFFE5838555F0A42FFFBF
:0E0F7700E5828556F0A42F8EF08D838C8222A9
:200076007800E84400600A790075A200E4F309D8FC7800E84400600C7900900000E4F0A388
:04009600D8FCD9FABF
:0D004100758156120FA1E582600302003E9A
:1C0F850020F71430F6148883A88220F507E6A88375830022E280F7E49322E0227B
:040FA1007582002233
:00000001FF
